{
  "contractName": "coinflip4u",
  "abi": [
    {
      "constant": true,
      "inputs": [],
      "name": "flip",
      "outputs": [
        {
          "internalType": "uint256",
          "name": "",
          "type": "uint256"
        }
      ],
      "payable": false,
      "stateMutability": "view",
      "type": "function"
    }
  ],
  "bytecode": "0x6080604052348015600f57600080fd5b50608f8061001e6000396000f3fe6080604052348015600f57600080fd5b506004361060285760003560e01c8063cde4efa914602d575b600080fd5b60336049565b6040518082815260200191505060405180910390f35b600060024281605457fe5b0690509056fea265627a7a723158204190f77728dd8723a83e1967c898384751df9fc08dcdb0c0c2963dbc11afbd1264736f6c634300050c0032",
  "source": "pragma solidity 0.5.12;\r\n\r\ncontract coinflip4u {\r\n    \r\n    function flip() public view returns(uint) {\r\n        \r\n        return now % 2;\r\n        \r\n    }\r\n    \r\n}",
  "sourcePath": "C:/Users/FR_JA/Desktop/Arbeit/BlockChain/Scriptprojekte/coinflip4u/contracts/coinflip4u.sol",
  "compiler": {
    "name": "solc",
    "version": "0.5.12+commit.7709ece9.Emscripten.clang"
  },
  "schemaVersion": "3.0.16",
  "updatedAt": "2020-01-21T14:43:34.128Z",
  "devdoc": {
    "methods": {}
  },
  "userdoc": {
    "methods": {}
  }
}