{
  "contractName": "coinflip4u",
  "abi": [
    {
      "anonymous": false,
      "inputs": [
        {
          "indexed": false,
          "internalType": "address",
          "name": "sender",
          "type": "address"
        },
        {
          "indexed": false,
          "internalType": "uint256",
          "name": "result",
          "type": "uint256"
        }
      ],
      "name": "coinFlipped",
      "type": "event"
    },
    {
      "constant": true,
      "inputs": [],
      "name": "balance",
      "outputs": [
        {
          "internalType": "uint256",
          "name": "",
          "type": "uint256"
        }
      ],
      "payable": false,
      "stateMutability": "view",
      "type": "function"
    },
    {
      "constant": true,
      "inputs": [],
      "name": "owner",
      "outputs": [
        {
          "internalType": "address",
          "name": "",
          "type": "address"
        }
      ],
      "payable": false,
      "stateMutability": "view",
      "type": "function"
    },
    {
      "constant": false,
      "inputs": [],
      "name": "flip",
      "outputs": [
        {
          "internalType": "uint256",
          "name": "",
          "type": "uint256"
        }
      ],
      "payable": true,
      "stateMutability": "payable",
      "type": "function"
    },
    {
      "constant": false,
      "inputs": [],
      "name": "increaseFunds",
      "outputs": [],
      "payable": true,
      "stateMutability": "payable",
      "type": "function"
    },
    {
      "constant": false,
      "inputs": [],
      "name": "withdrawFunds",
      "outputs": [
        {
          "internalType": "uint256",
          "name": "",
          "type": "uint256"
        }
      ],
      "payable": false,
      "stateMutability": "nonpayable",
      "type": "function"
    }
  ],
  "bytecode": "0x6080604052336000806101000a81548173ffffffffffffffffffffffffffffffffffffffff021916908373ffffffffffffffffffffffffffffffffffffffff16021790555061040b806100536000396000f3fe60806040526004361061004a5760003560e01c806324600fc31461004f5780638da5cb5b1461007a578063b69ef8a8146100d1578063cde4efa9146100fc578063ddb570921461011a575b600080fd5b34801561005b57600080fd5b50610064610124565b6040518082815260200191505060405180910390f35b34801561008657600080fd5b5061008f6101dc565b604051808273ffffffffffffffffffffffffffffffffffffffff1673ffffffffffffffffffffffffffffffffffffffff16815260200191505060405180910390f35b3480156100dd57600080fd5b506100e6610201565b6040518082815260200191505060405180910390f35b610104610207565b6040518082815260200191505060405180910390f35b610122610372565b005b60008060009054906101000a900473ffffffffffffffffffffffffffffffffffffffff1673ffffffffffffffffffffffffffffffffffffffff163373ffffffffffffffffffffffffffffffffffffffff161461017f57600080fd5b6000600154905060006001819055503373ffffffffffffffffffffffffffffffffffffffff166108fc829081150290604051600060405180830381858888f193505050501580156101d4573d6000803e3d6000fd5b508091505090565b6000809054906101000a900473ffffffffffffffffffffffffffffffffffffffff1681565b60015481565b600066b1a2bc2ec500008034101561021e57600080fd5b600154341115610279576040517f08c379a000000000000000000000000000000000000000000000000000000000815260040180806020018281038252603b81526020018061039c603b913960400191505060405180910390fd5b346001600082825401925050819055506000806002428161029657fe5b0690507ffa2a99928eb1170d3fd43cae98eab031fed6647e80297642ba4bcf85eb54ea353382604051808373ffffffffffffffffffffffffffffffffffffffff1673ffffffffffffffffffffffffffffffffffffffff1681526020018281526020019250505060405180910390a160008114156103645767016345785d8a000091503373ffffffffffffffffffffffffffffffffffffffff166108fc839081150290604051600060405180830381858888f1935050505015801561035e573d6000803e3d6000fd5b50610369565b600091505b81935050505090565b670de0b6b3a76400008034101561038857600080fd5b346001600082825401925050819055505056fe436f6e747261637420646f65736e2774206861766520656e6f7567682066756e647320746f20706179206f757420706f74656e7469616c2077696ea265627a7a72315820bfa8a30a0141369f6e1cc41d7deeb354b6f4e1d7a71bb171798ebb1d33bfd9e564736f6c634300050c0032",
  "source": "pragma solidity 0.5.12;\r\nimport \"./Ownable.sol\";\r\n\r\ncontract coinflip4u is Ownable{\r\n\r\n    uint public balance;\r\n\r\n    event coinFlipped(address sender, uint result);\r\n\r\n    modifier costs(uint cost){\r\n        require(msg.value >= cost);\r\n        _;\r\n    }\r\n    \r\n    function flip() public payable costs(0.05 ether) returns(uint)  {\r\n        \r\n        require(msg.value <= balance, \"Contract doesn't have enough funds to pay out potential win\");\r\n        balance += msg.value;\r\n        uint winnings;\r\n        uint result = now % 2;\r\n        emit coinFlipped(msg.sender, result);\r\n        \r\n        if(result == 0){\r\n            winnings = 0.1 ether;\r\n            msg.sender.transfer(winnings);\r\n        }\r\n        else{\r\n            winnings = 0 ether;\r\n        }\r\n        \r\n        return winnings;\r\n    }\r\n\r\n    function increaseFunds() public payable costs(1 ether) {\r\n        balance += msg.value;\r\n    }\r\n    \r\n    function withdrawFunds() public onlyOwner returns(uint){\r\n        uint toTransfer = balance;\r\n        balance = 0;\r\n        msg.sender.transfer(toTransfer);\r\n        return toTransfer;\r\n    }\r\n    \r\n}",
  "sourcePath": "C:/Users/FR_JA/Desktop/Arbeit/BlockChain/Scriptprojekte/coinflip4u/contracts/coinflip4u.sol",
  "compiler": {
    "name": "solc",
    "version": "0.5.12+commit.7709ece9.Emscripten.clang"
  },
  "schemaVersion": "3.0.16",
  "updatedAt": "2020-01-22T10:47:42.125Z",
  "devdoc": {
    "methods": {}
  },
  "userdoc": {
    "methods": {}
  }
}