{
  "contractName": "coinflip4u",
  "abi": [
    {
      "inputs": [],
      "payable": false,
      "stateMutability": "nonpayable",
      "type": "constructor"
    },
    {
      "anonymous": false,
      "inputs": [
        {
          "indexed": false,
          "internalType": "string",
          "name": "description",
          "type": "string"
        }
      ],
      "name": "LogNewProvableQuery",
      "type": "event"
    },
    {
      "anonymous": false,
      "inputs": [
        {
          "indexed": false,
          "internalType": "address",
          "name": "sender",
          "type": "address"
        },
        {
          "indexed": false,
          "internalType": "uint256",
          "name": "result",
          "type": "uint256"
        }
      ],
      "name": "coinFlipped",
      "type": "event"
    },
    {
      "anonymous": false,
      "inputs": [
        {
          "indexed": false,
          "internalType": "uint256",
          "name": "randomNumber",
          "type": "uint256"
        }
      ],
      "name": "generatedRandomNumber",
      "type": "event"
    },
    {
      "constant": true,
      "inputs": [],
      "name": "balance",
      "outputs": [
        {
          "internalType": "uint256",
          "name": "",
          "type": "uint256"
        }
      ],
      "payable": false,
      "stateMutability": "view",
      "type": "function"
    },
    {
      "constant": true,
      "inputs": [
        {
          "internalType": "address",
          "name": "",
          "type": "address"
        }
      ],
      "name": "isPlaying",
      "outputs": [
        {
          "internalType": "bool",
          "name": "",
          "type": "bool"
        }
      ],
      "payable": false,
      "stateMutability": "view",
      "type": "function"
    },
    {
      "constant": true,
      "inputs": [],
      "name": "latestNumber",
      "outputs": [
        {
          "internalType": "uint256",
          "name": "",
          "type": "uint256"
        }
      ],
      "payable": false,
      "stateMutability": "view",
      "type": "function"
    },
    {
      "constant": true,
      "inputs": [],
      "name": "owner",
      "outputs": [
        {
          "internalType": "address",
          "name": "",
          "type": "address"
        }
      ],
      "payable": false,
      "stateMutability": "view",
      "type": "function"
    },
    {
      "constant": false,
      "inputs": [
        {
          "internalType": "bytes32",
          "name": "_myid",
          "type": "bytes32"
        },
        {
          "internalType": "string",
          "name": "_result",
          "type": "string"
        }
      ],
      "name": "__callback",
      "outputs": [],
      "payable": false,
      "stateMutability": "nonpayable",
      "type": "function"
    },
    {
      "constant": false,
      "inputs": [
        {
          "internalType": "bytes32",
          "name": "_queryID",
          "type": "bytes32"
        },
        {
          "internalType": "string",
          "name": "_result",
          "type": "string"
        },
        {
          "internalType": "bytes",
          "name": "_proof",
          "type": "bytes"
        }
      ],
      "name": "__callback",
      "outputs": [],
      "payable": false,
      "stateMutability": "nonpayable",
      "type": "function"
    },
    {
      "constant": false,
      "inputs": [],
      "name": "update",
      "outputs": [],
      "payable": true,
      "stateMutability": "payable",
      "type": "function"
    },
    {
      "constant": false,
      "inputs": [],
      "name": "flip",
      "outputs": [
        {
          "internalType": "uint256",
          "name": "",
          "type": "uint256"
        }
      ],
      "payable": true,
      "stateMutability": "payable",
      "type": "function"
    },
    {
      "constant": false,
      "inputs": [],
      "name": "increaseFunds",
      "outputs": [],
      "payable": true,
      "stateMutability": "payable",
      "type": "function"
    },
    {
      "constant": false,
      "inputs": [],
      "name": "withdrawFunds",
      "outputs": [
        {
          "internalType": "uint256",
          "name": "",
          "type": "uint256"
        }
      ],
      "payable": false,
      "stateMutability": "nonpayable",
      "type": "function"
    },
    {
      "constant": false,
      "inputs": [],
      "name": "close",
      "outputs": [],
      "payable": false,
      "stateMutability": "nonpayable",
      "type": "function"
    }
  ],
  "bytecode": "0x60806040523480156200001157600080fd5b50336000806101000a81548173ffffffffffffffffffffffffffffffffffffffff021916908373ffffffffffffffffffffffffffffffffffffffff160217905550620000626200006860201b60201c565b62001f91565b6000809050600062030d4090506200008982600183620000da60201b60201c565b507fc4dc360d0a9c0677a3379ae0a3d81e887f761e65fdf3d7e00859d1bcd3c4738960405180806020018281038252603281526020018062004c226032913960400191505060405180910390a15050565b60008083118015620000ed575060208311155b620000f757600080fd5b600a84029350606060016040519080825280601f01601f191660200182016040528015620001345781602001600182028038833980820191505090505b5090508360f81b816000815181106200014957fe5b60200101907effffffffffffffffffffffffffffffffffffffffffffffffffffffffffffff1916908160001a905350606060206040519080825280601f01601f191660200182016040528015620001af5781602001600182028038833980820191505090505b509050606060206040519080825280601f01601f191660200182016040528015620001e95781602001600182028038833980820191505090505b5090506000620001fe620006ad60201b60201c565b905060208352424118600143034018602084015260208252806020830152606060206040519080825280601f01601f191660200182016040528015620002535781602001600182028038833980820191505090505b509050886020820152606060086040519080825280601f01601f191660200182016040528015620002935781602001600182028038833980820191505090505b509050620002ae8260186008846000620009e960201b60201c565b50620002b962001ea0565b60405180608001604052808781526020018881526020018681526020018481525090506000620003266040518060400160405280600681526020017f72616e646f6d0000000000000000000000000000000000000000000000000000815250838c62000a4b60201b60201c565b9050606060086040519080825280601f01601f1916602001820160405280156200035f5781602001600182028038833980820191505090505b50905060208401517f0100000000000000000000000000000000000000000000000000000000000000810460278301537e01000000000000000000000000000000000000000000000000000000000000810460268301537d010000000000000000000000000000000000000000000000000000000000810460258301537c0100000000000000000000000000000000000000000000000000000000810460248301537b01000000000000000000000000000000000000000000000000000000810460238301537a0100000000000000000000000000000000000000000000000000008104602283015379010000000000000000000000000000000000000000000000000081046021830153780100000000000000000000000000000000000000000000000081046020830153506200069a828285600160048110620004a057fe5b6020020151600287600060048110620004b557fe5b60200201516040518082805190602001908083835b60208310620004ef5780518252602082019150602081019050602083039250620004ca565b6001836020036101000a038019825116818451168082178552505050505050905001915050602060405180830381855afa15801562000532573d6000803e3d6000fd5b5050506040513d60208110156200054857600080fd5b8101908080519060200190929190505050876002600481106200056757fe5b60200201516040516020018085805190602001908083835b60208310620005a457805182526020820191506020810190506020830392506200057f565b6001836020036101000a03801982511681845116808217855250505050505090500184805190602001908083835b60208310620005f75780518252602082019150602081019050602083039250620005d2565b6001836020036101000a03801982511681845116808217855250505050505090500183815260200182805190602001908083835b602083106200065057805182526020820191506020810190506020830392506200062b565b6001836020036101000a0380198251168184511680821785525050505050509050019450505050506040516020818303038152906040528051906020012062000de560201b60201c565b8199505050505050505050509392505050565b60008073ffffffffffffffffffffffffffffffffffffffff16600260009054906101000a900473ffffffffffffffffffffffffffffffffffffffff1673ffffffffffffffffffffffffffffffffffffffff1614806200073e575060006200073c600260009054906101000a900473ffffffffffffffffffffffffffffffffffffffff1662000e0160201b60201c565b145b15620007585762000756600062000e0c60201b60201c565b505b600260009054906101000a900473ffffffffffffffffffffffffffffffffffffffff1673ffffffffffffffffffffffffffffffffffffffff166338cc48316040518163ffffffff1660e01b8152600401602060405180830381600087803b158015620007c357600080fd5b505af1158015620007d8573d6000803e3d6000fd5b505050506040513d6020811015620007ef57600080fd5b810190808051906020019092919050505073ffffffffffffffffffffffffffffffffffffffff16600160009054906101000a900473ffffffffffffffffffffffffffffffffffffffff1673ffffffffffffffffffffffffffffffffffffffff16146200093e57600260009054906101000a900473ffffffffffffffffffffffffffffffffffffffff1673ffffffffffffffffffffffffffffffffffffffff166338cc48316040518163ffffffff1660e01b8152600401602060405180830381600087803b158015620008c057600080fd5b505af1158015620008d5573d6000803e3d6000fd5b505050506040513d6020811015620008ec57600080fd5b8101908080519060200190929190505050600160006101000a81548173ffffffffffffffffffffffffffffffffffffffff021916908373ffffffffffffffffffffffffffffffffffffffff1602179055505b600160009054906101000a900473ffffffffffffffffffffffffffffffffffffffff1673ffffffffffffffffffffffffffffffffffffffff1663abaa5f3e6040518163ffffffff1660e01b815260040160206040518083038186803b158015620009a757600080fd5b505afa158015620009bc573d6000803e3d6000fd5b505050506040513d6020811015620009d357600080fd5b8101908080519060200190929190505050905090565b606060008285019050808451101562000a0157600080fd5b600086602001905060008460200190505b86886020010182101562000a3c578189015180828801525060208201915060208101905062000a12565b85935050505095945050505050565b60008073ffffffffffffffffffffffffffffffffffffffff16600260009054906101000a900473ffffffffffffffffffffffffffffffffffffffff1673ffffffffffffffffffffffffffffffffffffffff16148062000adc5750600062000ada600260009054906101000a900473ffffffffffffffffffffffffffffffffffffffff1662000e0160201b60201c565b145b1562000af65762000af4600062000e0c60201b60201c565b505b600260009054906101000a900473ffffffffffffffffffffffffffffffffffffffff1673ffffffffffffffffffffffffffffffffffffffff166338cc48316040518163ffffffff1660e01b8152600401602060405180830381600087803b15801562000b6157600080fd5b505af115801562000b76573d6000803e3d6000fd5b505050506040513d602081101562000b8d57600080fd5b810190808051906020019092919050505073ffffffffffffffffffffffffffffffffffffffff16600160009054906101000a900473ffffffffffffffffffffffffffffffffffffffff1673ffffffffffffffffffffffffffffffffffffffff161462000cdc57600260009054906101000a900473ffffffffffffffffffffffffffffffffffffffff1673ffffffffffffffffffffffffffffffffffffffff166338cc48316040518163ffffffff1660e01b8152600401602060405180830381600087803b15801562000c5e57600080fd5b505af115801562000c73573d6000803e3d6000fd5b505050506040513d602081101562000c8a57600080fd5b8101908080519060200190929190505050600160006101000a81548173ffffffffffffffffffffffffffffffffffffffff021916908373ffffffffffffffffffffffffffffffffffffffff1602179055505b6060600460405190808252806020026020018201604052801562000d1557816020015b606081526020019060019003908162000cff5790505b5090508360006004811062000d2657fe5b60200201518160008151811062000d3957fe5b60200260200101819052508360016004811062000d5257fe5b60200201518160018151811062000d6557fe5b60200260200101819052508360026004811062000d7e57fe5b60200201518160028151811062000d9157fe5b60200260200101819052508360036004811062000daa57fe5b60200201518160038151811062000dbd57fe5b602002602001018190525062000ddb85828562000e2560201b60201c565b9150509392505050565b8060046000848152602001908152602001600020819055505050565b6000813b9050919050565b600062000e1e620013bd60201b60201c565b9050919050565b60008073ffffffffffffffffffffffffffffffffffffffff16600260009054906101000a900473ffffffffffffffffffffffffffffffffffffffff1673ffffffffffffffffffffffffffffffffffffffff16148062000eb65750600062000eb4600260009054906101000a900473ffffffffffffffffffffffffffffffffffffffff1662000e0160201b60201c565b145b1562000ed05762000ece600062000e0c60201b60201c565b505b600260009054906101000a900473ffffffffffffffffffffffffffffffffffffffff1673ffffffffffffffffffffffffffffffffffffffff166338cc48316040518163ffffffff1660e01b8152600401602060405180830381600087803b15801562000f3b57600080fd5b505af115801562000f50573d6000803e3d6000fd5b505050506040513d602081101562000f6757600080fd5b810190808051906020019092919050505073ffffffffffffffffffffffffffffffffffffffff16600160009054906101000a900473ffffffffffffffffffffffffffffffffffffffff1673ffffffffffffffffffffffffffffffffffffffff1614620010b657600260009054906101000a900473ffffffffffffffffffffffffffffffffffffffff1673ffffffffffffffffffffffffffffffffffffffff166338cc48316040518163ffffffff1660e01b8152600401602060405180830381600087803b1580156200103857600080fd5b505af11580156200104d573d6000803e3d6000fd5b505050506040513d60208110156200106457600080fd5b8101908080519060200190929190505050600160006101000a81548173ffffffffffffffffffffffffffffffffffffffff021916908373ffffffffffffffffffffffffffffffffffffffff1602179055505b6000600160009054906101000a900473ffffffffffffffffffffffffffffffffffffffff1673ffffffffffffffffffffffffffffffffffffffff16632ef3accc86856040518363ffffffff1660e01b81526004018080602001838152602001828103825284818151815260200191508051906020019080838360005b838110156200114f57808201518184015260208101905062001132565b50505050905090810190601f1680156200117d5780820380516001836020036101000a031916815260200191505b509350505050602060405180830381600087803b1580156200119e57600080fd5b505af1158015620011b3573d6000803e3d6000fd5b505050506040513d6020811015620011ca57600080fd5b81019080805190602001909291905050509050823a02670de0b6b3a764000001811115620011ff576000801b915050620013b6565b606062001212856200198c60201b60201c565b9050600160009054906101000a900473ffffffffffffffffffffffffffffffffffffffff1673ffffffffffffffffffffffffffffffffffffffff1663c55c1cb68360008985896040518663ffffffff1660e01b8152600401808581526020018060200180602001848152602001838103835286818151815260200191508051906020019080838360005b83811015620012b95780820151818401526020810190506200129c565b50505050905090810190601f168015620012e75780820380516001836020036101000a031916815260200191505b50838103825285818151815260200191508051906020019080838360005b838110156200132257808201518184015260208101905062001305565b50505050905090810190601f168015620013505780820380516001836020036101000a031916815260200191505b5096505050505050506020604051808303818588803b1580156200137357600080fd5b505af115801562001388573d6000803e3d6000fd5b50505050506040513d6020811015620013a057600080fd5b8101908080519060200190929190505050925050505b9392505050565b600080620013e5731d3b2638a7cc9f2cb3d298a3da7a90b67e5506ed62000e0160201b60201c565b11156200149157731d3b2638a7cc9f2cb3d298a3da7a90b67e5506ed600260006101000a81548173ffffffffffffffffffffffffffffffffffffffff021916908373ffffffffffffffffffffffffffffffffffffffff160217905550620014876040518060400160405280600b81526020017f6574685f6d61696e6e657400000000000000000000000000000000000000000081525062001a4760201b60201c565b6001905062001989565b6000620014b873c03a2615d5efaf5f49f60b7bb6583eaec212fdf162000e0160201b60201c565b1115620015645773c03a2615d5efaf5f49f60b7bb6583eaec212fdf1600260006101000a81548173ffffffffffffffffffffffffffffffffffffffff021916908373ffffffffffffffffffffffffffffffffffffffff1602179055506200155a6040518060400160405280600c81526020017f6574685f726f707374656e33000000000000000000000000000000000000000081525062001a4760201b60201c565b6001905062001989565b60006200158b73b7a07bcf2ba2f2703b24c0691b5278999c59ac7e62000e0160201b60201c565b1115620016375773b7a07bcf2ba2f2703b24c0691b5278999c59ac7e600260006101000a81548173ffffffffffffffffffffffffffffffffffffffff021916908373ffffffffffffffffffffffffffffffffffffffff1602179055506200162d6040518060400160405280600981526020017f6574685f6b6f76616e000000000000000000000000000000000000000000000081525062001a4760201b60201c565b6001905062001989565b60006200165e73146500cfd35b22e4a392fe0adc06de1a1368ed4862000e0160201b60201c565b11156200170a5773146500cfd35b22e4a392fe0adc06de1a1368ed48600260006101000a81548173ffffffffffffffffffffffffffffffffffffffff021916908373ffffffffffffffffffffffffffffffffffffffff160217905550620017006040518060400160405280600b81526020017f6574685f72696e6b65627900000000000000000000000000000000000000000081525062001a4760201b60201c565b6001905062001989565b60006200173173a2998efd205fb9d4b4963afb70778d6354ad3a4162000e0160201b60201c565b1115620017dd5773a2998efd205fb9d4b4963afb70778d6354ad3a41600260006101000a81548173ffffffffffffffffffffffffffffffffffffffff021916908373ffffffffffffffffffffffffffffffffffffffff160217905550620017d36040518060400160405280600a81526020017f6574685f676f65726c690000000000000000000000000000000000000000000081525062001a4760201b60201c565b6001905062001989565b600062001804736f485c8bf6fc43ea212e93bbf8ce046c7f1cb47562000e0160201b60201c565b11156200186a57736f485c8bf6fc43ea212e93bbf8ce046c7f1cb475600260006101000a81548173ffffffffffffffffffffffffffffffffffffffff021916908373ffffffffffffffffffffffffffffffffffffffff1602179055506001905062001989565b6000620018917320e12a1f859b3feae5fb2a0a32c18f5a65555bbf62000e0160201b60201c565b1115620018f7577320e12a1f859b3feae5fb2a0a32c18f5a65555bbf600260006101000a81548173ffffffffffffffffffffffffffffffffffffffff021916908373ffffffffffffffffffffffffffffffffffffffff1602179055506001905062001989565b60006200191e7351efaf4c8b3c9afbd5ab9f4bbc82784ab6ef8faa62000e0160201b60201c565b111562001984577351efaf4c8b3c9afbd5ab9f4bbc82784ab6ef8faa600260006101000a81548173ffffffffffffffffffffffffffffffffffffffff021916908373ffffffffffffffffffffffffffffffffffffffff1602179055506001905062001989565b600090505b90565b60606200199e62001a6360201b60201c565b620019a862001ec8565b620019c18161040062001a6f60201b6200277c1760201c565b620019d78162001abc60201b620027c61760201c565b60008090505b835181101562001a235762001a15848281518110620019f857fe5b60200260200101518362001ad260201b620027d41790919060201c565b8080600101915050620019dd565b5062001a3a8162001b0660201b620027f91760201c565b8060000151915050919050565b806003908051906020019062001a5f92919062001ee2565b5050565b60405180590338823950565b600081905060006020828162001a8157fe5b061462001a9c576020818162001a9357fe5b06602003810190505b808360200181815250506040518084526000815281810160405250505050565b62001acf81600462001b1c60201b60201c565b50565b62001ae7826002835162001b4460201b60201c565b62001b01818362001ccc60201b620029681790919060201c565b505050565b62001b1981600762001b1c60201b60201c565b50565b62001b40601f60058360ff16901b178362001d8c60201b62002a131790919060201c565b5050565b6017811162001b795762001b738160058460ff16901b60ff16178462001d8c60201b62002a131790919060201c565b62001cc7565b60ff811162001bca5762001ba6601860058460ff16901b178462001d8c60201b62002a131790919060201c565b62001bc38160018562001dd560201b62002a53179092919060201c565b5062001cc6565b61ffff811162001c1c5762001bf8601960058460ff16901b178462001d8c60201b62002a131790919060201c565b62001c158160028562001dd560201b62002a53179092919060201c565b5062001cc5565b63ffffffff811162001c705762001c4c601a60058460ff16901b178462001d8c60201b62002a131790919060201c565b62001c698160048562001dd560201b62002a53179092919060201c565b5062001cc4565b67ffffffffffffffff811162001cc35762001ca4601b60058460ff16901b178462001d8c60201b62002a131790919060201c565b62001cc18160088562001dd560201b62002a53179092919060201c565b505b5b5b5b5b505050565b62001cd662001ec8565b8260200151836000015151835101111562001d175762001d1683600262001d098660200151865162001e4f60201b60201c565b0262001e6d60201b60201c565b5b60008060008451905085518051602081830101945086518101825260208701935050505b6020811062001d60578151835260208301925060208201915060208103905062001d3b565b60006001826020036101000a039050801983511681855116818117865250508694505050505092915050565b8160200151600183600001515101111562001dbb5762001dba82600284602001510262001e6d60201b60201c565b5b815180516020818301018381536001820183525050505050565b62001ddf62001ec8565b83602001518460000151518301111562001e1e5762001e1d84600262001e1087602001518662001e4f60201b60201c565b0262001e6d60201b60201c565b5b60006001836101000a0390508451805184818301018684198251161781528582018352505050849150509392505050565b60008183111562001e635782905062001e67565b8190505b92915050565b60608260000151905062001e88838362001a6f60201b60201c565b62001e9a838262001ccc60201b60201c565b50505050565b60405180608001604052806004905b606081526020019060019003908162001eaf5790505090565b604051806040016040528060608152602001600081525090565b828054600181600116156101000203166002900490600052602060002090601f016020900481019282601f1062001f2557805160ff191683800117855562001f56565b8280016001018555821562001f56579182015b8281111562001f5557825182559160200191906001019062001f38565b5b50905062001f65919062001f69565b5090565b62001f8e91905b8082111562001f8a57600081600090555060010162001f70565b5090565b90565b612c818062001fa16000396000f3fe60806040526004361061009c5760003560e01c8063a2e6204511610064578063a2e6204514610375578063b69ef8a81461037f578063b7665613146103aa578063cde4efa914610413578063dc34b0aa14610431578063ddb570921461045c5761009c565b806324600fc3146100a157806327dc297e146100cc57806338bbfa501461019e57806343d726d6146103075780638da5cb5b1461031e575b600080fd5b3480156100ad57600080fd5b506100b6610466565b6040518082815260200191505060405180910390f35b3480156100d857600080fd5b5061019c600480360360408110156100ef57600080fd5b81019080803590602001909291908035906020019064010000000081111561011657600080fd5b82018360208201111561012857600080fd5b8035906020019184600183028401116401000000008311171561014a57600080fd5b91908080601f016020809104026020016040519081016040528093929190818152602001838380828437600081840152601f19601f820116905080830192505050505050509192919290505050610587565b005b3480156101aa57600080fd5b50610305600480360360608110156101c157600080fd5b8101908080359060200190929190803590602001906401000000008111156101e857600080fd5b8201836020820111156101fa57600080fd5b8035906020019184600183028401116401000000008311171561021c57600080fd5b91908080601f016020809104026020016040519081016040528093929190818152602001838380828437600081840152601f19601f8201169050808301925050505050505091929192908035906020019064010000000081111561027f57600080fd5b82018360208201111561029157600080fd5b803590602001918460018302840111640100000000831117156102b357600080fd5b91908080601f016020809104026020016040519081016040528093929190818152602001838380828437600081840152601f19601f8201169050808301925050505050505091929192905050506105ca565b005b34801561031357600080fd5b5061031c6106d0565b005b34801561032a57600080fd5b506103336107fc565b604051808273ffffffffffffffffffffffffffffffffffffffff1673ffffffffffffffffffffffffffffffffffffffff16815260200191505060405180910390f35b61037d610821565b005b34801561038b57600080fd5b5061039461088a565b6040518082815260200191505060405180910390f35b3480156103b657600080fd5b506103f9600480360360208110156103cd57600080fd5b81019080803573ffffffffffffffffffffffffffffffffffffffff169060200190929190505050610890565b604051808215151515815260200191505060405180910390f35b61041b6108b0565b6040518082815260200191505060405180910390f35b34801561043d57600080fd5b50610446610ba0565b6040518082815260200191505060405180910390f35b610464610ba6565b005b60008060009054906101000a900473ffffffffffffffffffffffffffffffffffffffff1673ffffffffffffffffffffffffffffffffffffffff163373ffffffffffffffffffffffffffffffffffffffff161461052a576040517f08c379a00000000000000000000000000000000000000000000000000000000081526004018080602001828103825260138152602001807f43616c6c6572206973206e6f74206f776e65720000000000000000000000000081525060200191505060405180910390fd5b6000600654905060006006819055503373ffffffffffffffffffffffffffffffffffffffff166108fc829081150290604051600060405180830381858888f1935050505015801561057f573d6000803e3d6000fd5b508091505090565b6105c6828260006040519080825280601f01601f1916602001820160405280156105c05781602001600182028038833980820191505090505b506105ca565b5050565b6105d2610c38565b73ffffffffffffffffffffffffffffffffffffffff163373ffffffffffffffffffffffffffffffffffffffff161461060957600080fd5b6000826040516020018082805190602001908083835b60208310610642578051825260208201915060208101905060208303925061061f565b6001836020036101000a0380198251168184511680821785525050505050509050019150506040516020818303038152906040528051906020012060001c90506002818161068c57fe5b066007819055507fc13d60fe9dffdb6908d2d446cd18134373a51db0738ee04f296eeb9128121cbc816040518082815260200191505060405180910390a150505050565b6000809054906101000a900473ffffffffffffffffffffffffffffffffffffffff1673ffffffffffffffffffffffffffffffffffffffff163373ffffffffffffffffffffffffffffffffffffffff1614610792576040517f08c379a00000000000000000000000000000000000000000000000000000000081526004018080602001828103825260138152602001807f43616c6c6572206973206e6f74206f776e65720000000000000000000000000081525060200191505060405180910390fd5b3373ffffffffffffffffffffffffffffffffffffffff166108fc6006549081150290604051600060405180830381858888f193505050501580156107da573d6000803e3d6000fd5b5060006006819055503373ffffffffffffffffffffffffffffffffffffffff16ff5b6000809054906101000a900473ffffffffffffffffffffffffffffffffffffffff1681565b6000809050600062030d40905061083a82600183610f58565b507fc4dc360d0a9c0677a3379ae0a3d81e887f761e65fdf3d7e00859d1bcd3c47389604051808060200182810382526032815260200180612be06032913960400191505060405180910390a15050565b60065481565b60086020528060005260406000206000915054906101000a900460ff1681565b600066b1a2bc2ec5000080341015610930576040517f08c379a00000000000000000000000000000000000000000000000000000000081526004018080602001828103825260128152602001807f56616c756520696e73756666696369656e74000000000000000000000000000081525060200191505060405180910390fd5b60065434111561098b576040517f08c379a000000000000000000000000000000000000000000000000000000000815260040180806020018281038252603b815260200180612c12603b913960400191505060405180910390fd5b6000339050600860008273ffffffffffffffffffffffffffffffffffffffff1673ffffffffffffffffffffffffffffffffffffffff16815260200190815260200160002060009054906101000a900460ff16610b9657346006600082825401925050819055506001600860008373ffffffffffffffffffffffffffffffffffffffff1673ffffffffffffffffffffffffffffffffffffffff16815260200190815260200160002060006101000a81548160ff021916908315150217905550610a51610821565b600060075490507ffa2a99928eb1170d3fd43cae98eab031fed6647e80297642ba4bcf85eb54ea353382604051808373ffffffffffffffffffffffffffffffffffffffff1673ffffffffffffffffffffffffffffffffffffffff1681526020018281526020019250505060405180910390a16000811415610b345767016345785d8a00006006600082825403925050819055503373ffffffffffffffffffffffffffffffffffffffff166108fc67016345785d8a00009081150290604051600060405180830381858888f19350505050158015610b32573d6000803e3d6000fd5b505b6000600860008473ffffffffffffffffffffffffffffffffffffffff1673ffffffffffffffffffffffffffffffffffffffff16815260200190815260200160002060006101000a81548160ff0219169083151502179055508093505050610b9c565b60029250505b5090565b60075481565b670de0b6b3a764000080341015610c25576040517f08c379a00000000000000000000000000000000000000000000000000000000081526004018080602001828103825260128152602001807f56616c756520696e73756666696369656e74000000000000000000000000000081525060200191505060405180910390fd5b3460066000828254019250508190555050565b60008073ffffffffffffffffffffffffffffffffffffffff16600260009054906101000a900473ffffffffffffffffffffffffffffffffffffffff1673ffffffffffffffffffffffffffffffffffffffff161480610cc057506000610cbe600260009054906101000a900473ffffffffffffffffffffffffffffffffffffffff166114f3565b145b15610cd157610ccf60006114fe565b505b600260009054906101000a900473ffffffffffffffffffffffffffffffffffffffff1673ffffffffffffffffffffffffffffffffffffffff166338cc48316040518163ffffffff1660e01b8152600401602060405180830381600087803b158015610d3b57600080fd5b505af1158015610d4f573d6000803e3d6000fd5b505050506040513d6020811015610d6557600080fd5b810190808051906020019092919050505073ffffffffffffffffffffffffffffffffffffffff16600160009054906101000a900473ffffffffffffffffffffffffffffffffffffffff1673ffffffffffffffffffffffffffffffffffffffff1614610eb057600260009054906101000a900473ffffffffffffffffffffffffffffffffffffffff1673ffffffffffffffffffffffffffffffffffffffff166338cc48316040518163ffffffff1660e01b8152600401602060405180830381600087803b158015610e3457600080fd5b505af1158015610e48573d6000803e3d6000fd5b505050506040513d6020811015610e5e57600080fd5b8101908080519060200190929190505050600160006101000a81548173ffffffffffffffffffffffffffffffffffffffff021916908373ffffffffffffffffffffffffffffffffffffffff1602179055505b600160009054906101000a900473ffffffffffffffffffffffffffffffffffffffff1673ffffffffffffffffffffffffffffffffffffffff1663c281d19e6040518163ffffffff1660e01b815260040160206040518083038186803b158015610f1857600080fd5b505afa158015610f2c573d6000803e3d6000fd5b505050506040513d6020811015610f4257600080fd5b8101908080519060200190929190505050905090565b60008083118015610f6a575060208311155b610f7357600080fd5b600a84029350606060016040519080825280601f01601f191660200182016040528015610faf5781602001600182028038833980820191505090505b5090508360f81b81600081518110610fc357fe5b60200101907effffffffffffffffffffffffffffffffffffffffffffffffffffffffffffff1916908160001a905350606060206040519080825280601f01601f1916602001820160405280156110285781602001600182028038833980820191505090505b509050606060206040519080825280601f01601f1916602001820160405280156110615781602001600182028038833980820191505090505b509050600061106e61150f565b905060208352424118600143034018602084015260208252806020830152606060206040519080825280601f01601f1916602001820160405280156110c25781602001600182028038833980820191505090505b509050886020820152606060086040519080825280601f01601f1916602001820160405280156111015781602001600182028038833980820191505090505b509050611114826018600884600061182f565b5061111d612af9565b604051806080016040528087815260200188815260200186815260200184815250905060006111826040518060400160405280600681526020017f72616e646f6d0000000000000000000000000000000000000000000000000000815250838c61188e565b9050606060086040519080825280601f01601f1916602001820160405280156111ba5781602001600182028038833980820191505090505b50905060208401517f0100000000000000000000000000000000000000000000000000000000000000810460278301537e01000000000000000000000000000000000000000000000000000000000000810460268301537d010000000000000000000000000000000000000000000000000000000000810460258301537c0100000000000000000000000000000000000000000000000000000000810460248301537b01000000000000000000000000000000000000000000000000000000810460238301537a0100000000000000000000000000000000000000000000000000008104602283015379010000000000000000000000000000000000000000000000000081046021830153780100000000000000000000000000000000000000000000000081046020830153506114e08282856001600481106112f957fe5b602002015160028760006004811061130d57fe5b60200201516040518082805190602001908083835b602083106113455780518252602082019150602081019050602083039250611322565b6001836020036101000a038019825116818451168082178552505050505050905001915050602060405180830381855afa158015611387573d6000803e3d6000fd5b5050506040513d602081101561139c57600080fd5b8101908080519060200190929190505050876002600481106113ba57fe5b60200201516040516020018085805190602001908083835b602083106113f557805182526020820191506020810190506020830392506113d2565b6001836020036101000a03801982511681845116808217855250505050505090500184805190602001908083835b602083106114465780518252602082019150602081019050602083039250611423565b6001836020036101000a03801982511681845116808217855250505050505090500183815260200182805190602001908083835b6020831061149d578051825260208201915060208101905060208303925061147a565b6001836020036101000a03801982511681845116808217855250505050505090500194505050505060405160208183030381529060405280519060200120611bfd565b8199505050505050505050509392505050565b6000813b9050919050565b6000611508611c19565b9050919050565b60008073ffffffffffffffffffffffffffffffffffffffff16600260009054906101000a900473ffffffffffffffffffffffffffffffffffffffff1673ffffffffffffffffffffffffffffffffffffffff16148061159757506000611595600260009054906101000a900473ffffffffffffffffffffffffffffffffffffffff166114f3565b145b156115a8576115a660006114fe565b505b600260009054906101000a900473ffffffffffffffffffffffffffffffffffffffff1673ffffffffffffffffffffffffffffffffffffffff166338cc48316040518163ffffffff1660e01b8152600401602060405180830381600087803b15801561161257600080fd5b505af1158015611626573d6000803e3d6000fd5b505050506040513d602081101561163c57600080fd5b810190808051906020019092919050505073ffffffffffffffffffffffffffffffffffffffff16600160009054906101000a900473ffffffffffffffffffffffffffffffffffffffff1673ffffffffffffffffffffffffffffffffffffffff161461178757600260009054906101000a900473ffffffffffffffffffffffffffffffffffffffff1673ffffffffffffffffffffffffffffffffffffffff166338cc48316040518163ffffffff1660e01b8152600401602060405180830381600087803b15801561170b57600080fd5b505af115801561171f573d6000803e3d6000fd5b505050506040513d602081101561173557600080fd5b8101908080519060200190929190505050600160006101000a81548173ffffffffffffffffffffffffffffffffffffffff021916908373ffffffffffffffffffffffffffffffffffffffff1602179055505b600160009054906101000a900473ffffffffffffffffffffffffffffffffffffffff1673ffffffffffffffffffffffffffffffffffffffff1663abaa5f3e6040518163ffffffff1660e01b815260040160206040518083038186803b1580156117ef57600080fd5b505afa158015611803573d6000803e3d6000fd5b505050506040513d602081101561181957600080fd5b8101908080519060200190929190505050905090565b606060008285019050808451101561184657600080fd5b600086602001905060008460200190505b86886020010182101561187f5781890151808288015250602082019150602081019050611857565b85935050505095945050505050565b60008073ffffffffffffffffffffffffffffffffffffffff16600260009054906101000a900473ffffffffffffffffffffffffffffffffffffffff1673ffffffffffffffffffffffffffffffffffffffff16148061191657506000611914600260009054906101000a900473ffffffffffffffffffffffffffffffffffffffff166114f3565b145b156119275761192560006114fe565b505b600260009054906101000a900473ffffffffffffffffffffffffffffffffffffffff1673ffffffffffffffffffffffffffffffffffffffff166338cc48316040518163ffffffff1660e01b8152600401602060405180830381600087803b15801561199157600080fd5b505af11580156119a5573d6000803e3d6000fd5b505050506040513d60208110156119bb57600080fd5b810190808051906020019092919050505073ffffffffffffffffffffffffffffffffffffffff16600160009054906101000a900473ffffffffffffffffffffffffffffffffffffffff1673ffffffffffffffffffffffffffffffffffffffff1614611b0657600260009054906101000a900473ffffffffffffffffffffffffffffffffffffffff1673ffffffffffffffffffffffffffffffffffffffff166338cc48316040518163ffffffff1660e01b8152600401602060405180830381600087803b158015611a8a57600080fd5b505af1158015611a9e573d6000803e3d6000fd5b505050506040513d6020811015611ab457600080fd5b8101908080519060200190929190505050600160006101000a81548173ffffffffffffffffffffffffffffffffffffffff021916908373ffffffffffffffffffffffffffffffffffffffff1602179055505b60606004604051908082528060200260200182016040528015611b3d57816020015b6060815260200190600190039081611b285790505b50905083600060048110611b4d57fe5b602002015181600081518110611b5f57fe5b602002602001018190525083600160048110611b7757fe5b602002015181600181518110611b8957fe5b602002602001018190525083600260048110611ba157fe5b602002015181600281518110611bb357fe5b602002602001018190525083600360048110611bcb57fe5b602002015181600381518110611bdd57fe5b6020026020010181905250611bf3858285612170565b9150509392505050565b8060046000848152602001908152602001600020819055505050565b600080611c39731d3b2638a7cc9f2cb3d298a3da7a90b67e5506ed6114f3565b1115611cdb57731d3b2638a7cc9f2cb3d298a3da7a90b67e5506ed600260006101000a81548173ffffffffffffffffffffffffffffffffffffffff021916908373ffffffffffffffffffffffffffffffffffffffff160217905550611cd26040518060400160405280600b81526020017f6574685f6d61696e6e65740000000000000000000000000000000000000000008152506126d6565b6001905061216d565b6000611cfa73c03a2615d5efaf5f49f60b7bb6583eaec212fdf16114f3565b1115611d9c5773c03a2615d5efaf5f49f60b7bb6583eaec212fdf1600260006101000a81548173ffffffffffffffffffffffffffffffffffffffff021916908373ffffffffffffffffffffffffffffffffffffffff160217905550611d936040518060400160405280600c81526020017f6574685f726f707374656e3300000000000000000000000000000000000000008152506126d6565b6001905061216d565b6000611dbb73b7a07bcf2ba2f2703b24c0691b5278999c59ac7e6114f3565b1115611e5d5773b7a07bcf2ba2f2703b24c0691b5278999c59ac7e600260006101000a81548173ffffffffffffffffffffffffffffffffffffffff021916908373ffffffffffffffffffffffffffffffffffffffff160217905550611e546040518060400160405280600981526020017f6574685f6b6f76616e00000000000000000000000000000000000000000000008152506126d6565b6001905061216d565b6000611e7c73146500cfd35b22e4a392fe0adc06de1a1368ed486114f3565b1115611f1e5773146500cfd35b22e4a392fe0adc06de1a1368ed48600260006101000a81548173ffffffffffffffffffffffffffffffffffffffff021916908373ffffffffffffffffffffffffffffffffffffffff160217905550611f156040518060400160405280600b81526020017f6574685f72696e6b6562790000000000000000000000000000000000000000008152506126d6565b6001905061216d565b6000611f3d73a2998efd205fb9d4b4963afb70778d6354ad3a416114f3565b1115611fdf5773a2998efd205fb9d4b4963afb70778d6354ad3a41600260006101000a81548173ffffffffffffffffffffffffffffffffffffffff021916908373ffffffffffffffffffffffffffffffffffffffff160217905550611fd66040518060400160405280600a81526020017f6574685f676f65726c69000000000000000000000000000000000000000000008152506126d6565b6001905061216d565b6000611ffe736f485c8bf6fc43ea212e93bbf8ce046c7f1cb4756114f3565b111561206257736f485c8bf6fc43ea212e93bbf8ce046c7f1cb475600260006101000a81548173ffffffffffffffffffffffffffffffffffffffff021916908373ffffffffffffffffffffffffffffffffffffffff1602179055506001905061216d565b60006120817320e12a1f859b3feae5fb2a0a32c18f5a65555bbf6114f3565b11156120e5577320e12a1f859b3feae5fb2a0a32c18f5a65555bbf600260006101000a81548173ffffffffffffffffffffffffffffffffffffffff021916908373ffffffffffffffffffffffffffffffffffffffff1602179055506001905061216d565b60006121047351efaf4c8b3c9afbd5ab9f4bbc82784ab6ef8faa6114f3565b1115612168577351efaf4c8b3c9afbd5ab9f4bbc82784ab6ef8faa600260006101000a81548173ffffffffffffffffffffffffffffffffffffffff021916908373ffffffffffffffffffffffffffffffffffffffff1602179055506001905061216d565b600090505b90565b60008073ffffffffffffffffffffffffffffffffffffffff16600260009054906101000a900473ffffffffffffffffffffffffffffffffffffffff1673ffffffffffffffffffffffffffffffffffffffff1614806121f8575060006121f6600260009054906101000a900473ffffffffffffffffffffffffffffffffffffffff166114f3565b145b156122095761220760006114fe565b505b600260009054906101000a900473ffffffffffffffffffffffffffffffffffffffff1673ffffffffffffffffffffffffffffffffffffffff166338cc48316040518163ffffffff1660e01b8152600401602060405180830381600087803b15801561227357600080fd5b505af1158015612287573d6000803e3d6000fd5b505050506040513d602081101561229d57600080fd5b810190808051906020019092919050505073ffffffffffffffffffffffffffffffffffffffff16600160009054906101000a900473ffffffffffffffffffffffffffffffffffffffff1673ffffffffffffffffffffffffffffffffffffffff16146123e857600260009054906101000a900473ffffffffffffffffffffffffffffffffffffffff1673ffffffffffffffffffffffffffffffffffffffff166338cc48316040518163ffffffff1660e01b8152600401602060405180830381600087803b15801561236c57600080fd5b505af1158015612380573d6000803e3d6000fd5b505050506040513d602081101561239657600080fd5b8101908080519060200190929190505050600160006101000a81548173ffffffffffffffffffffffffffffffffffffffff021916908373ffffffffffffffffffffffffffffffffffffffff1602179055505b6000600160009054906101000a900473ffffffffffffffffffffffffffffffffffffffff1673ffffffffffffffffffffffffffffffffffffffff16632ef3accc86856040518363ffffffff1660e01b81526004018080602001838152602001828103825284818151815260200191508051906020019080838360005b8381101561247f578082015181840152602081019050612464565b50505050905090810190601f1680156124ac5780820380516001836020036101000a031916815260200191505b509350505050602060405180830381600087803b1580156124cc57600080fd5b505af11580156124e0573d6000803e3d6000fd5b505050506040513d60208110156124f657600080fd5b81019080805190602001909291905050509050823a02670de0b6b3a764000001811115612529576000801b9150506126cf565b6060612534856126f0565b9050600160009054906101000a900473ffffffffffffffffffffffffffffffffffffffff1673ffffffffffffffffffffffffffffffffffffffff1663c55c1cb68360008985896040518663ffffffff1660e01b8152600401808581526020018060200180602001848152602001838103835286818151815260200191508051906020019080838360005b838110156125d95780820151818401526020810190506125be565b50505050905090810190601f1680156126065780820380516001836020036101000a031916815260200191505b50838103825285818151815260200191508051906020019080838360005b8381101561263f578082015181840152602081019050612624565b50505050905090810190601f16801561266c5780820380516001836020036101000a031916815260200191505b5096505050505050506020604051808303818588803b15801561268e57600080fd5b505af11580156126a2573d6000803e3d6000fd5b50505050506040513d60208110156126b957600080fd5b8101908080519060200190929190505050925050505b9392505050565b80600390805190602001906126ec929190612b20565b5050565b60606126fa612770565b612702612ba0565b61270e8161040061277c565b612717816127c6565b60008090505b83518110156127595761274c84828151811061273557fe5b6020026020010151836127d490919063ffffffff16565b808060010191505061271d565b50612763816127f9565b8060000151915050919050565b60405180590338823950565b600081905060006020828161278d57fe5b06146127a6576020818161279d57fe5b06602003810190505b808360200181815250506040518084526000815281810160405250505050565b6127d1816004612807565b50565b6127e18260028351612828565b6127f4818361296890919063ffffffff16565b505050565b612804816007612807565b50565b612824601f60058360ff16901b1783612a1390919063ffffffff16565b5050565b601781116128545761284f8160058460ff16901b60ff161784612a1390919063ffffffff16565b612963565b60ff811161289557612879601860058460ff16901b1784612a1390919063ffffffff16565b61288f81600185612a539092919063ffffffff16565b50612962565b61ffff81116128d7576128bb601960058460ff16901b1784612a1390919063ffffffff16565b6128d181600285612a539092919063ffffffff16565b50612961565b63ffffffff811161291b576128ff601a60058460ff16901b1784612a1390919063ffffffff16565b61291581600485612a539092919063ffffffff16565b50612960565b67ffffffffffffffff811161295f57612947601b60058460ff16901b1784612a1390919063ffffffff16565b61295d81600885612a539092919063ffffffff16565b505b5b5b5b5b505050565b612970612ba0565b826020015183600001515183510111156129a05761299f83600261299986602001518651612aba565b02612ad6565b5b60008060008451905085518051602081830101945086518101825260208701935050505b602081106129e757815183526020830192506020820191506020810390506129c4565b60006001826020036101000a039050801983511681855116818117865250508694505050505092915050565b81602001516001836000015151011115612a3957612a38826002846020015102612ad6565b5b815180516020818301018381536001820183525050505050565b612a5b612ba0565b836020015184600001515183011115612a8957612a88846002612a82876020015186612aba565b02612ad6565b5b60006001836101000a0390508451805184818301018684198251161781528582018352505050849150509392505050565b600081831115612acc57829050612ad0565b8190505b92915050565b606082600001519050612ae9838361277c565b612af38382612968565b50505050565b60405180608001604052806004905b6060815260200190600190039081612b085790505090565b828054600181600116156101000203166002900490600052602060002090601f016020900481019282601f10612b6157805160ff1916838001178555612b8f565b82800160010185558215612b8f579182015b82811115612b8e578251825591602001919060010190612b73565b5b509050612b9c9190612bba565b5090565b604051806040016040528060608152602001600081525090565b612bdc91905b80821115612bd8576000816000905550600101612bc0565b5090565b9056fe50726f7661626c65207175657279207761732073656e742c207374616e64696e6720627920666f7220616e737765722e2e2e436f6e747261637420646f65736e2774206861766520656e6f7567682066756e647320746f20706179206f757420706f74656e7469616c2077696ea265627a7a723158204e136741c357dcc18ac6ab6dfd4e14ddeec38767f23cead02917f0ce13ffc43d64736f6c634300050c003250726f7661626c65207175657279207761732073656e742c207374616e64696e6720627920666f7220616e737765722e2e2e",
  "source": "pragma solidity 0.5.12;\r\nimport \"./Ownable.sol\";\r\nimport \"./provableAPI.sol\";\r\n\r\ncontract coinflip4u is Ownable, usingProvable{\r\n\r\n    uint public balance;\r\n    uint256 constant NUM_RANDOM_BYTES_REQUESTED = 1;\r\n    uint256 public latestNumber;\r\n\r\n    event coinFlipped(address sender, uint result);\r\n    event LogNewProvableQuery(string description);\r\n    event generatedRandomNumber(uint256 randomNumber);\r\n\r\n    mapping(address => bool) public isPlaying;\r\n\r\n    modifier costs(uint cost){\r\n        require(msg.value >= cost, \"Value insufficient\");\r\n        _;\r\n    }\r\n\r\n    constructor() public{\r\n        update();\r\n    }\r\n    \r\n    function __callback(bytes32 _queryID, string memory _result, bytes memory _proof) public{\r\n        require(msg.sender == provable_cbAddress());\r\n        uint256 randomNumber = uint256(keccak256(abi.encodePacked(_result)));\r\n        latestNumber = randomNumber % 2;\r\n        emit generatedRandomNumber(randomNumber);\r\n    }\r\n\r\n    function update() payable public {\r\n        uint256 QUERY_EXECUTION_DELAY = 0;\r\n        uint256 GAS_FOR_CALLBACK = 200000;\r\n        provable_newRandomDSQuery(QUERY_EXECUTION_DELAY, NUM_RANDOM_BYTES_REQUESTED, GAS_FOR_CALLBACK);\r\n        emit LogNewProvableQuery(\"Provable query was sent, standing by for answer...\");\r\n    }\r\n\r\n    function flip() public payable costs(0.05 ether) returns(uint)  {\r\n        \r\n        require(msg.value <= balance, \"Contract doesn't have enough funds to pay out potential win\");\r\n        address player = msg.sender;\r\n        if(!isPlaying[player]){\r\n            balance += msg.value;\r\n            //uint result = now % 2;\r\n            isPlaying[player] = true;\r\n            update();\r\n            uint result = latestNumber;\r\n            emit coinFlipped(msg.sender, result);\r\n            if(result == 0){\r\n                balance -= 0.1 ether;\r\n                msg.sender.transfer(0.1 ether);\r\n            }\r\n            isPlaying[player] = false;\r\n            return result;\r\n        }\r\n        else{\r\n            return 2;\r\n        }\r\n    }\r\n\r\n    function increaseFunds() public payable costs(1 ether) {\r\n        balance += msg.value;\r\n    }\r\n    \r\n    function withdrawFunds() public onlyOwner returns(uint){\r\n        uint transferredBalance = balance;\r\n        balance = 0;\r\n        msg.sender.transfer(transferredBalance);\r\n        return transferredBalance;\r\n    }\r\n    \r\n    function close() public onlyOwner{\r\n        msg.sender.transfer(balance);\r\n        balance = 0;\r\n        selfdestruct(msg.sender);\r\n    }\r\n}",
  "sourcePath": "C:/Users/FR_JA/Desktop/Arbeit/BlockChain/Scriptprojekte/coinflip4u/contracts/coinflip4u.sol",
  "compiler": {
    "name": "solc",
    "version": "0.5.12+commit.7709ece9.Emscripten.clang"
  },
  "schemaVersion": "3.0.16",
  "updatedAt": "2020-01-29T13:05:54.626Z",
  "devdoc": {
    "methods": {
      "__callback(bytes32,string)": {
        "details": "The following `__callback` functions are just placeholders ideally     meant to be defined in child contract when proofs are used.     The function bodies simply silence compiler warnings."
      }
    }
  },
  "userdoc": {
    "methods": {}
  }
}