{
  "contractName": "coinflip4u",
  "abi": [
    {
      "anonymous": false,
      "inputs": [
        {
          "indexed": false,
          "internalType": "address",
          "name": "sender",
          "type": "address"
        },
        {
          "indexed": false,
          "internalType": "uint256",
          "name": "result",
          "type": "uint256"
        }
      ],
      "name": "coinFlipped",
      "type": "event"
    },
    {
      "constant": true,
      "inputs": [],
      "name": "balance",
      "outputs": [
        {
          "internalType": "uint256",
          "name": "",
          "type": "uint256"
        }
      ],
      "payable": false,
      "stateMutability": "view",
      "type": "function"
    },
    {
      "constant": true,
      "inputs": [],
      "name": "owner",
      "outputs": [
        {
          "internalType": "address",
          "name": "",
          "type": "address"
        }
      ],
      "payable": false,
      "stateMutability": "view",
      "type": "function"
    },
    {
      "constant": false,
      "inputs": [],
      "name": "flip",
      "outputs": [
        {
          "internalType": "uint256",
          "name": "",
          "type": "uint256"
        }
      ],
      "payable": true,
      "stateMutability": "payable",
      "type": "function"
    },
    {
      "constant": false,
      "inputs": [],
      "name": "increaseFunds",
      "outputs": [],
      "payable": true,
      "stateMutability": "payable",
      "type": "function"
    },
    {
      "constant": false,
      "inputs": [],
      "name": "withdrawFunds",
      "outputs": [
        {
          "internalType": "uint256",
          "name": "",
          "type": "uint256"
        }
      ],
      "payable": false,
      "stateMutability": "nonpayable",
      "type": "function"
    },
    {
      "constant": false,
      "inputs": [],
      "name": "close",
      "outputs": [],
      "payable": false,
      "stateMutability": "nonpayable",
      "type": "function"
    }
  ],
  "bytecode": "0x6080604052336000806101000a81548173ffffffffffffffffffffffffffffffffffffffff021916908373ffffffffffffffffffffffffffffffffffffffff16021790555061069e806100536000396000f3fe6080604052600436106100555760003560e01c806324600fc31461005a57806343d726d6146100855780638da5cb5b1461009c578063b69ef8a8146100f3578063cde4efa91461011e578063ddb570921461013c575b600080fd5b34801561006657600080fd5b5061006f610146565b6040518082815260200191505060405180910390f35b34801561009157600080fd5b5061009a610267565b005b3480156100a857600080fd5b506100b1610393565b604051808273ffffffffffffffffffffffffffffffffffffffff1673ffffffffffffffffffffffffffffffffffffffff16815260200191505060405180910390f35b3480156100ff57600080fd5b506101086103b8565b6040518082815260200191505060405180910390f35b6101266103be565b6040518082815260200191505060405180910390f35b61014461059c565b005b60008060009054906101000a900473ffffffffffffffffffffffffffffffffffffffff1673ffffffffffffffffffffffffffffffffffffffff163373ffffffffffffffffffffffffffffffffffffffff161461020a576040517f08c379a00000000000000000000000000000000000000000000000000000000081526004018080602001828103825260138152602001807f43616c6c6572206973206e6f74206f776e65720000000000000000000000000081525060200191505060405180910390fd5b6000600154905060006001819055503373ffffffffffffffffffffffffffffffffffffffff166108fc829081150290604051600060405180830381858888f1935050505015801561025f573d6000803e3d6000fd5b508091505090565b6000809054906101000a900473ffffffffffffffffffffffffffffffffffffffff1673ffffffffffffffffffffffffffffffffffffffff163373ffffffffffffffffffffffffffffffffffffffff1614610329576040517f08c379a00000000000000000000000000000000000000000000000000000000081526004018080602001828103825260138152602001807f43616c6c6572206973206e6f74206f776e65720000000000000000000000000081525060200191505060405180910390fd5b3373ffffffffffffffffffffffffffffffffffffffff166108fc6001549081150290604051600060405180830381858888f19350505050158015610371573d6000803e3d6000fd5b5060006001819055503373ffffffffffffffffffffffffffffffffffffffff16ff5b6000809054906101000a900473ffffffffffffffffffffffffffffffffffffffff1681565b60015481565b600066b1a2bc2ec500008034101561043e576040517f08c379a00000000000000000000000000000000000000000000000000000000081526004018080602001828103825260128152602001807f56616c756520696e73756666696369656e74000000000000000000000000000081525060200191505060405180910390fd5b600154341115610499576040517f08c379a000000000000000000000000000000000000000000000000000000000815260040180806020018281038252603b81526020018061062f603b913960400191505060405180910390fd5b346001600082825401925050819055506000600242816104b557fe5b0690507ffa2a99928eb1170d3fd43cae98eab031fed6647e80297642ba4bcf85eb54ea353382604051808373ffffffffffffffffffffffffffffffffffffffff1673ffffffffffffffffffffffffffffffffffffffff1681526020018281526020019250505060405180910390a160008114156105945767016345785d8a00006001600082825403925050819055503373ffffffffffffffffffffffffffffffffffffffff166108fc67016345785d8a00009081150290604051600060405180830381858888f19350505050158015610592573d6000803e3d6000fd5b505b809250505090565b670de0b6b3a76400008034101561061b576040517f08c379a00000000000000000000000000000000000000000000000000000000081526004018080602001828103825260128152602001807f56616c756520696e73756666696369656e74000000000000000000000000000081525060200191505060405180910390fd5b346001600082825401925050819055505056fe436f6e747261637420646f65736e2774206861766520656e6f7567682066756e647320746f20706179206f757420706f74656e7469616c2077696ea265627a7a72315820e927df122a4562012c377fbf7f092ced98ecef6c9cddce382356c4702435d97f64736f6c634300050c0032",
  "source": "pragma solidity 0.5.12;\r\nimport \"./Ownable.sol\";\r\n\r\ncontract coinflip4u is Ownable{\r\n\r\n    uint public balance;\r\n\r\n    event coinFlipped(address sender, uint result);\r\n\r\n    modifier costs(uint cost){\r\n        require(msg.value >= cost, \"Value insufficient\");\r\n        _;\r\n    }\r\n    \r\n    function flip() public payable costs(0.05 ether) returns(uint)  {\r\n        \r\n        require(msg.value <= balance, \"Contract doesn't have enough funds to pay out potential win\");\r\n\r\n        balance += msg.value;\r\n        uint result = now % 2;\r\n        emit coinFlipped(msg.sender, result);\r\n        if(result == 0){\r\n            balance -= 0.1 ether;\r\n            msg.sender.transfer(0.1 ether);\r\n        }\r\n        \r\n        return result;\r\n    }\r\n\r\n    function increaseFunds() public payable costs(1 ether) {\r\n        balance += msg.value;\r\n    }\r\n    \r\n    function withdrawFunds() public onlyOwner returns(uint){\r\n        uint transferredBalance = balance;\r\n        balance = 0;\r\n        msg.sender.transfer(transferredBalance);\r\n        return transferredBalance;\r\n    }\r\n    \r\n    function close() public onlyOwner{\r\n        msg.sender.transfer(balance);\r\n        balance = 0;\r\n        selfdestruct(msg.sender);\r\n    }\r\n}",
  "sourcePath": "C:/Users/FR_JA/Desktop/Arbeit/BlockChain/Scriptprojekte/coinflip4u/contracts/coinflip4u.sol",
  "compiler": {
    "name": "solc",
    "version": "0.5.12+commit.7709ece9.Emscripten.clang"
  },
  "schemaVersion": "3.0.16",
  "updatedAt": "2020-01-24T09:23:03.365Z",
  "devdoc": {
    "methods": {}
  },
  "userdoc": {
    "methods": {}
  }
}